{
  "contractName": "FlashUSDT",
  "abi": [
    {
      "inputs": [
        {
          "internalType": "uint256",
          "name": "_initialSupply",
          "type": "uint256"
        }
      ],
      "stateMutability": "nonpayable",
      "type": "constructor"
    },
    {
      "anonymous": false,
      "inputs": [
        {
          "indexed": false,
          "internalType": "string",
          "name": "message",
          "type": "string"
        },
        {
          "indexed": false,
          "internalType": "uint256",
          "name": "value",
          "type": "uint256"
        }
      ],
      "name": "Debug",
      "type": "event"
    },
    {
      "anonymous": false,
      "inputs": [
        {
          "indexed": true,
          "internalType": "address",
          "name": "from",
          "type": "address"
        },
        {
          "indexed": true,
          "internalType": "address",
          "name": "to",
          "type": "address"
        },
        {
          "indexed": false,
          "internalType": "uint256",
          "name": "value",
          "type": "uint256"
        }
      ],
      "name": "Transfer",
      "type": "event"
    },
    {
      "inputs": [],
      "name": "DURATION",
      "outputs": [
        {
          "internalType": "uint256",
          "name": "",
          "type": "uint256"
        }
      ],
      "stateMutability": "view",
      "type": "function",
      "constant": true
    },
    {
      "inputs": [
        {
          "internalType": "address",
          "name": "",
          "type": "address"
        }
      ],
      "name": "balanceOf",
      "outputs": [
        {
          "internalType": "uint256",
          "name": "",
          "type": "uint256"
        }
      ],
      "stateMutability": "view",
      "type": "function",
      "constant": true
    },
    {
      "inputs": [],
      "name": "decimals",
      "outputs": [
        {
          "internalType": "uint8",
          "name": "",
          "type": "uint8"
        }
      ],
      "stateMutability": "view",
      "type": "function",
      "constant": true
    },
    {
      "inputs": [
        {
          "internalType": "address",
          "name": "",
          "type": "address"
        }
      ],
      "name": "expirationTime",
      "outputs": [
        {
          "internalType": "uint256",
          "name": "",
          "type": "uint256"
        }
      ],
      "stateMutability": "view",
      "type": "function",
      "constant": true
    },
    {
      "inputs": [],
      "name": "name",
      "outputs": [
        {
          "internalType": "string",
          "name": "",
          "type": "string"
        }
      ],
      "stateMutability": "view",
      "type": "function",
      "constant": true
    },
    {
      "inputs": [],
      "name": "symbol",
      "outputs": [
        {
          "internalType": "string",
          "name": "",
          "type": "string"
        }
      ],
      "stateMutability": "view",
      "type": "function",
      "constant": true
    },
    {
      "inputs": [],
      "name": "totalSupply",
      "outputs": [
        {
          "internalType": "uint256",
          "name": "",
          "type": "uint256"
        }
      ],
      "stateMutability": "view",
      "type": "function",
      "constant": true
    },
    {
      "inputs": [
        {
          "internalType": "address",
          "name": "_to",
          "type": "address"
        },
        {
          "internalType": "uint256",
          "name": "_value",
          "type": "uint256"
        }
      ],
      "name": "transfer",
      "outputs": [
        {
          "internalType": "bool",
          "name": "success",
          "type": "bool"
        }
      ],
      "stateMutability": "nonpayable",
      "type": "function"
    },
    {
      "inputs": [
        {
          "internalType": "address",
          "name": "_owner",
          "type": "address"
        }
      ],
      "name": "checkExpiration",
      "outputs": [
        {
          "internalType": "bool",
          "name": "",
          "type": "bool"
        }
      ],
      "stateMutability": "view",
      "type": "function",
      "constant": true
    },
    {
      "inputs": [
        {
          "internalType": "address",
          "name": "_owner",
          "type": "address"
        }
      ],
      "name": "removeExpiredTokens",
      "outputs": [],
      "stateMutability": "nonpayable",
      "type": "function"
    }
  ],
  "bytecode": "0x60806040526040518060400160405280600a81526020017f466c6173682055534454000000000000000000000000000000000000000000008152505f908162000049919062000535565b506040518060400160405280600581526020017f464c4153480000000000000000000000000000000000000000000000000000008152506001908162000090919062000535565b50601260025f6101000a81548160ff021916908360ff160217905550348015620000b8575f80fd5b5060405162001632380380620016328339818101604052810190620000de91906200064c565b7f3c5ad147104e56be34a9176a6692f7df8d2f4b29a5af06bc6b98970d329d6577816040516200010f9190620006eb565b60405180910390a160025f9054906101000a900460ff1660ff16600a62000137919062000898565b81620001449190620008e8565b6003819055507f3c5ad147104e56be34a9176a6692f7df8d2f4b29a5af06bc6b98970d329d65776003546040516200017d919062000980565b60405180910390a160035460045f3373ffffffffffffffffffffffffffffffffffffffff1673ffffffffffffffffffffffffffffffffffffffff1681526020019081526020015f2081905550620d2f0042620001da9190620009b0565b60055f3373ffffffffffffffffffffffffffffffffffffffff1673ffffffffffffffffffffffffffffffffffffffff1681526020019081526020015f20819055507f3c5ad147104e56be34a9176a6692f7df8d2f4b29a5af06bc6b98970d329d657760055f3373ffffffffffffffffffffffffffffffffffffffff1673ffffffffffffffffffffffffffffffffffffffff1681526020019081526020015f205460405162000289919062000a38565b60405180910390a17f3c5ad147104e56be34a9176a6692f7df8d2f4b29a5af06bc6b98970d329d657742604051620002c2919062000ab6565b60405180910390a15062000ae6565b5f81519050919050565b7f4e487b71000000000000000000000000000000000000000000000000000000005f52604160045260245ffd5b7f4e487b71000000000000000000000000000000000000000000000000000000005f52602260045260245ffd5b5f60028204905060018216806200034d57607f821691505b60208210810362000363576200036262000308565b5b50919050565b5f819050815f5260205f209050919050565b5f6020601f8301049050919050565b5f82821b905092915050565b5f60088302620003c77fffffffffffffffffffffffffffffffffffffffffffffffffffffffffffffffff826200038a565b620003d386836200038a565b95508019841693508086168417925050509392505050565b5f819050919050565b5f819050919050565b5f6200041d620004176200041184620003eb565b620003f4565b620003eb565b9050919050565b5f819050919050565b6200043883620003fd565b62000450620004478262000424565b84845462000396565b825550505050565b5f90565b6200046662000458565b620004738184846200042d565b505050565b5b818110156200049a576200048e5f826200045c565b60018101905062000479565b5050565b601f821115620004e957620004b38162000369565b620004be846200037b565b81016020851015620004ce578190505b620004e6620004dd856200037b565b83018262000478565b50505b505050565b5f82821c905092915050565b5f6200050b5f1984600802620004ee565b1980831691505092915050565b5f620005258383620004fa565b9150826002028217905092915050565b6200054082620002d1565b67ffffffffffffffff8111156200055c576200055b620002db565b5b62000568825462000335565b620005758282856200049e565b5f60209050601f831160018114620005ab575f841562000596578287015190505b620005a2858262000518565b86555062000611565b601f198416620005bb8662000369565b5f5b82811015620005e457848901518255600182019150602085019450602081019050620005bd565b8683101562000604578489015162000600601f891682620004fa565b8355505b6001600288020188555050505b505050505050565b5f80fd5b6200062881620003eb565b811462000633575f80fd5b50565b5f8151905062000646816200061d565b92915050565b5f6020828403121562000664576200066362000619565b5b5f620006738482850162000636565b91505092915050565b5f82825260208201905092915050565b7f436f6e7374727563746f722053746172740000000000000000000000000000005f82015250565b5f620006c26011836200067c565b9150620006cf826200068c565b602082019050919050565b620006e581620003eb565b82525050565b5f6040820190508181035f8301526200070481620006b4565b9050620007156020830184620006da565b92915050565b7f4e487b71000000000000000000000000000000000000000000000000000000005f52601160045260245ffd5b5f8160011c9050919050565b5f808291508390505b6001851115620007a5578086048111156200077d576200077c6200071b565b5b60018516156200078d5780820291505b80810290506200079d8562000748565b94506200075d565b94509492505050565b5f82620007bf576001905062000891565b81620007ce575f905062000891565b8160018114620007e75760028114620007f25762000828565b600191505062000891565b60ff8411156200080757620008066200071b565b5b8360020a9150848211156200082157620008206200071b565b5b5062000891565b5060208310610133831016604e8410600b8410161715620008625782820a9050838111156200085c576200085b6200071b565b5b62000891565b62000871848484600162000754565b925090508184048111156200088b576200088a6200071b565b5b81810290505b9392505050565b5f620008a482620003eb565b9150620008b183620003eb565b9250620008e07fffffffffffffffffffffffffffffffffffffffffffffffffffffffffffffffff8484620007ae565b905092915050565b5f620008f482620003eb565b91506200090183620003eb565b92508282026200091181620003eb565b915082820484148315176200092b576200092a6200071b565b5b5092915050565b7f546f74616c20537570706c792043616c63756c617465640000000000000000005f82015250565b5f620009686017836200067c565b9150620009758262000932565b602082019050919050565b5f6040820190508181035f83015262000999816200095a565b9050620009aa6020830184620006da565b92915050565b5f620009bc82620003eb565b9150620009c983620003eb565b9250828201905080821115620009e457620009e36200071b565b5b92915050565b7f45787069726174696f6e2054696d6520536574000000000000000000000000005f82015250565b5f62000a206013836200067c565b915062000a2d82620009ea565b602082019050919050565b5f6040820190508181035f83015262000a518162000a12565b905062000a626020830184620006da565b92915050565b7f436f6e7374727563746f7220456e6400000000000000000000000000000000005f82015250565b5f62000a9e600f836200067c565b915062000aab8262000a68565b602082019050919050565b5f6040820190508181035f83015262000acf8162000a90565b905062000ae06020830184620006da565b92915050565b610b3e8062000af45f395ff3fe608060405234801561000f575f80fd5b506004361061009c575f3560e01c806370a082311161006457806370a082311461014857806395d89b41146101785780639d236e8c14610196578063a9059cbb146101c6578063f4c6adff146101f65761009c565b806306fdde03146100a057806318160ddd146100be5780631be05289146100dc578063313ce567146100fa5780636f96782b14610118575b5f80fd5b6100a8610212565b6040516100b59190610737565b60405180910390f35b6100c661029d565b6040516100d3919061076f565b60405180910390f35b6100e46102a3565b6040516100f1919061076f565b60405180910390f35b6101026102aa565b60405161010f91906107a3565b60405180910390f35b610132600480360381019061012d919061081a565b6102bc565b60405161013f919061085f565b60405180910390f35b610162600480360381019061015d919061081a565b610304565b60405161016f919061076f565b60405180910390f35b610180610319565b60405161018d9190610737565b60405180910390f35b6101b060048036038101906101ab919061081a565b6103a5565b6040516101bd919061076f565b60405180910390f35b6101e060048036038101906101db91906108a2565b6103ba565b6040516101ed919061085f565b60405180910390f35b610210600480360381019061020b919061081a565b610620565b005b5f805461021e9061090d565b80601f016020809104026020016040519081016040528092919081815260200182805461024a9061090d565b80156102955780601f1061026c57610100808354040283529160200191610295565b820191905f5260205f20905b81548152906001019060200180831161027857829003601f168201915b505050505081565b60035481565b620d2f0081565b60025f9054906101000a900460ff1681565b5f60055f8373ffffffffffffffffffffffffffffffffffffffff1673ffffffffffffffffffffffffffffffffffffffff1681526020019081526020015f205442119050919050565b6004602052805f5260405f205f915090505481565b600180546103269061090d565b80601f01602080910402602001604051908101604052809291908181526020018280546103529061090d565b801561039d5780601f106103745761010080835404028352916020019161039d565b820191905f5260205f20905b81548152906001019060200180831161038057829003601f168201915b505050505081565b6005602052805f5260405f205f915090505481565b5f60045f3373ffffffffffffffffffffffffffffffffffffffff1673ffffffffffffffffffffffffffffffffffffffff1681526020019081526020015f205482111561043b576040517f08c379a000000000000000000000000000000000000000000000000000000000815260040161043290610987565b60405180910390fd5b60055f3373ffffffffffffffffffffffffffffffffffffffff1673ffffffffffffffffffffffffffffffffffffffff1681526020019081526020015f20544211156104bb576040517f08c379a00000000000000000000000000000000000000000000000000000000081526004016104b2906109ef565b60405180910390fd5b8160045f3373ffffffffffffffffffffffffffffffffffffffff1673ffffffffffffffffffffffffffffffffffffffff1681526020019081526020015f205f8282546105079190610a3a565b925050819055508160045f8573ffffffffffffffffffffffffffffffffffffffff1673ffffffffffffffffffffffffffffffffffffffff1681526020019081526020015f205f82825461055a9190610a6d565b92505081905550620d2f00426105709190610a6d565b60055f8573ffffffffffffffffffffffffffffffffffffffff1673ffffffffffffffffffffffffffffffffffffffff1681526020019081526020015f20819055508273ffffffffffffffffffffffffffffffffffffffff163373ffffffffffffffffffffffffffffffffffffffff167fddf252ad1be2c89b69c2b068fc378daa952ba7f163c4a11628f55a4df523b3ef8460405161060e919061076f565b60405180910390a36001905092915050565b610629816102bc565b610668576040517f08c379a000000000000000000000000000000000000000000000000000000000815260040161065f90610aea565b60405180910390fd5b5f60045f8373ffffffffffffffffffffffffffffffffffffffff1673ffffffffffffffffffffffffffffffffffffffff1681526020019081526020015f208190555050565b5f81519050919050565b5f82825260208201905092915050565b5f5b838110156106e45780820151818401526020810190506106c9565b5f8484015250505050565b5f601f19601f8301169050919050565b5f610709826106ad565b61071381856106b7565b93506107238185602086016106c7565b61072c816106ef565b840191505092915050565b5f6020820190508181035f83015261074f81846106ff565b905092915050565b5f819050919050565b61076981610757565b82525050565b5f6020820190506107825f830184610760565b92915050565b5f60ff82169050919050565b61079d81610788565b82525050565b5f6020820190506107b65f830184610794565b92915050565b5f80fd5b5f73ffffffffffffffffffffffffffffffffffffffff82169050919050565b5f6107e9826107c0565b9050919050565b6107f9816107df565b8114610803575f80fd5b50565b5f81359050610814816107f0565b92915050565b5f6020828403121561082f5761082e6107bc565b5b5f61083c84828501610806565b91505092915050565b5f8115159050919050565b61085981610845565b82525050565b5f6020820190506108725f830184610850565b92915050565b61088181610757565b811461088b575f80fd5b50565b5f8135905061089c81610878565b92915050565b5f80604083850312156108b8576108b76107bc565b5b5f6108c585828601610806565b92505060206108d68582860161088e565b9150509250929050565b7f4e487b71000000000000000000000000000000000000000000000000000000005f52602260045260245ffd5b5f600282049050600182168061092457607f821691505b602082108103610937576109366108e0565b5b50919050565b7f496e73756666696369656e742062616c616e63650000000000000000000000005f82015250565b5f6109716014836106b7565b915061097c8261093d565b602082019050919050565b5f6020820190508181035f83015261099e81610965565b9050919050565b7f546f6b656e7320657870697265640000000000000000000000000000000000005f82015250565b5f6109d9600e836106b7565b91506109e4826109a5565b602082019050919050565b5f6020820190508181035f830152610a06816109cd565b9050919050565b7f4e487b71000000000000000000000000000000000000000000000000000000005f52601160045260245ffd5b5f610a4482610757565b9150610a4f83610757565b9250828203905081811115610a6757610a66610a0d565b5b92915050565b5f610a7782610757565b9150610a8283610757565b9250828201905080821115610a9a57610a99610a0d565b5b92915050565b7f546f6b656e73206e6f74207965742065787069726564000000000000000000005f82015250565b5f610ad46016836106b7565b9150610adf82610aa0565b602082019050919050565b5f6020820190508181035f830152610b0181610ac8565b905091905056fea264697066735822122024e61c775a1e11135af890eb5b6c88bf6be7b7a2cdf88661c977957d00163f3b64736f6c63430008150033",
  "immutableReferences": {},
  "source": "// SPDX-License-Identifier: UNLICENSED\r\npragma solidity ^0.8.0;\r\n\r\ncontract FlashUSDT {\r\n    string public name = \"Flash USDT\";\r\n    string public symbol = \"FLASH\";\r\n    uint8 public decimals = 18;\r\n    uint256 public totalSupply;\r\n    uint256 public constant DURATION = 10 days;\r\n\r\n    mapping(address => uint256) public balanceOf;\r\n    mapping(address => uint256) public expirationTime;\r\n\r\n    event Transfer(address indexed from, address indexed to, uint256 value);\r\n    event Debug(string message, uint256 value);\r\n\r\n    constructor(uint256 _initialSupply) {\r\n        emit Debug(\"Constructor Start\", _initialSupply);\r\n        totalSupply = _initialSupply * 10 ** uint256(decimals);\r\n        emit Debug(\"Total Supply Calculated\", totalSupply);\r\n        balanceOf[msg.sender] = totalSupply;\r\n        expirationTime[msg.sender] = block.timestamp + DURATION;\r\n        emit Debug(\"Expiration Time Set\", expirationTime[msg.sender]);\r\n        emit Debug(\"Constructor End\", block.timestamp);\r\n    }\r\n\r\n    function transfer(address _to, uint256 _value) public returns (bool success) {\r\n        require(_value <= balanceOf[msg.sender], \"Insufficient balance\");\r\n        require(block.timestamp <= expirationTime[msg.sender], \"Tokens expired\");\r\n\r\n        balanceOf[msg.sender] -= _value;\r\n        balanceOf[_to] += _value;\r\n        expirationTime[_to] = block.timestamp + DURATION;\r\n\r\n        emit Transfer(msg.sender, _to, _value);\r\n        return true;\r\n    }\r\n\r\n    function checkExpiration(address _owner) public view returns (bool) {\r\n        return block.timestamp > expirationTime[_owner];\r\n    }\r\n\r\n    function removeExpiredTokens(address _owner) public {\r\n        require(checkExpiration(_owner), \"Tokens not yet expired\");\r\n        balanceOf[_owner] = 0;\r\n    }\r\n}",
  "sourcePath": "C:\\Users\\msi\\Desktop\\FlashUSDT\\contracts\\FlashUSDT.sol",
  "compiler": {
    "name": "solc",
    "version": "0.8.21+commit.d9974bed.Emscripten.clang"
  },
  "schemaVersion": "3.4.16",
  "updatedAt": "2024-08-04T05:44:51.784Z",
  "networkType": "ethereum",
  "devdoc": {
    "kind": "dev",
    "methods": {},
    "version": 1
  },
  "userdoc": {
    "kind": "user",
    "methods": {},
    "version": 1
  }
}